{
  "_format": "hh-sol-artifact-1",
  "contractName": "SmartWork",
  "sourceName": "contracts/SmartWork.sol",
  "abi": [
    {
      "inputs": [
        {
          "internalType": "address",
          "name": "usdtAddress",
          "type": "address"
        }
      ],
      "stateMutability": "nonpayable",
      "type": "constructor"
    },
    {
      "anonymous": false,
      "inputs": [
        {
          "indexed": true,
          "internalType": "uint256",
          "name": "val",
          "type": "uint256"
        },
        {
          "indexed": true,
          "internalType": "uint256",
          "name": "job_id",
          "type": "uint256"
        }
      ],
      "name": "PaymentAccepted",
      "type": "event"
    },
    {
      "anonymous": false,
      "inputs": [
        {
          "indexed": true,
          "internalType": "uint256",
          "name": "val",
          "type": "uint256"
        },
        {
          "indexed": true,
          "internalType": "uint256",
          "name": "job_id",
          "type": "uint256"
        }
      ],
      "name": "PaymentCanceled",
      "type": "event"
    },
    {
      "anonymous": false,
      "inputs": [
        {
          "indexed": true,
          "internalType": "uint256",
          "name": "val",
          "type": "uint256"
        },
        {
          "indexed": true,
          "internalType": "uint256",
          "name": "job_id",
          "type": "uint256"
        }
      ],
      "name": "PaymentCreated",
      "type": "event"
    },
    {
      "anonymous": false,
      "inputs": [
        {
          "indexed": true,
          "internalType": "uint256",
          "name": "val",
          "type": "uint256"
        },
        {
          "indexed": true,
          "internalType": "uint256",
          "name": "job_id",
          "type": "uint256"
        }
      ],
      "name": "PaymentSend",
      "type": "event"
    },
    {
      "inputs": [
        {
          "internalType": "uint256",
          "name": "paymentIndex",
          "type": "uint256"
        }
      ],
      "name": "acceptPayment",
      "outputs": [],
      "stateMutability": "nonpayable",
      "type": "function"
    },
    {
      "inputs": [
        {
          "internalType": "uint256",
          "name": "paymentIndex",
          "type": "uint256"
        }
      ],
      "name": "cancelPaymentByCient",
      "outputs": [],
      "stateMutability": "nonpayable",
      "type": "function"
    },
    {
      "inputs": [
        {
          "internalType": "uint256",
          "name": "paymentIndex",
          "type": "uint256"
        }
      ],
      "name": "cancelPaymentByExcecutor",
      "outputs": [],
      "stateMutability": "nonpayable",
      "type": "function"
    },
    {
      "inputs": [
        {
          "internalType": "address",
          "name": "excecutor",
          "type": "address"
        },
        {
          "internalType": "uint256",
          "name": "amount",
          "type": "uint256"
        },
        {
          "internalType": "uint256",
          "name": "job_id",
          "type": "uint256"
        },
        {
          "internalType": "uint256",
          "name": "proposal_id",
          "type": "uint256"
        }
      ],
      "name": "createPayment",
      "outputs": [],
      "stateMutability": "nonpayable",
      "type": "function"
    },
    {
      "inputs": [],
      "name": "currentBalace",
      "outputs": [
        {
          "internalType": "uint256",
          "name": "",
          "type": "uint256"
        }
      ],
      "stateMutability": "view",
      "type": "function"
    },
    {
      "inputs": [
        {
          "internalType": "uint256",
          "name": "paymentIndex",
          "type": "uint256"
        },
        {
          "internalType": "uint256",
          "name": "discountAmount",
          "type": "uint256"
        }
      ],
      "name": "discountPayment",
      "outputs": [],
      "stateMutability": "nonpayable",
      "type": "function"
    },
    {
      "inputs": [],
      "name": "fee",
      "outputs": [
        {
          "internalType": "uint8",
          "name": "",
          "type": "uint8"
        }
      ],
      "stateMutability": "view",
      "type": "function"
    },
    {
      "inputs": [
        {
          "internalType": "uint256",
          "name": "id",
          "type": "uint256"
        }
      ],
      "name": "getPaymentById",
      "outputs": [
        {
          "components": [
            {
              "internalType": "uint256",
              "name": "id",
              "type": "uint256"
            },
            {
              "internalType": "uint256",
              "name": "amount",
              "type": "uint256"
            },
            {
              "internalType": "uint256",
              "name": "discountAmount",
              "type": "uint256"
            },
            {
              "internalType": "address",
              "name": "client",
              "type": "address"
            },
            {
              "internalType": "address",
              "name": "excecutor",
              "type": "address"
            },
            {
              "internalType": "uint256",
              "name": "job_id",
              "type": "uint256"
            },
            {
              "internalType": "uint256",
              "name": "proposal_id",
              "type": "uint256"
            },
            {
              "internalType": "bool",
              "name": "is_paid",
              "type": "bool"
            },
            {
              "internalType": "bool",
              "name": "is_canceled",
              "type": "bool"
            },
            {
              "internalType": "bool",
              "name": "is_accepted",
              "type": "bool"
            },
            {
              "internalType": "uint8",
              "name": "fee_percent",
              "type": "uint8"
            },
            {
              "internalType": "uint256",
              "name": "fee_amount",
              "type": "uint256"
            }
          ],
          "internalType": "struct SmartWork.Payment",
          "name": "",
          "type": "tuple"
        }
      ],
      "stateMutability": "view",
      "type": "function"
    },
    {
      "inputs": [
        {
          "internalType": "uint256",
          "name": "jobId",
          "type": "uint256"
        }
      ],
      "name": "getPaymentByJobId",
      "outputs": [
        {
          "components": [
            {
              "internalType": "uint256",
              "name": "id",
              "type": "uint256"
            },
            {
              "internalType": "uint256",
              "name": "amount",
              "type": "uint256"
            },
            {
              "internalType": "uint256",
              "name": "discountAmount",
              "type": "uint256"
            },
            {
              "internalType": "address",
              "name": "client",
              "type": "address"
            },
            {
              "internalType": "address",
              "name": "excecutor",
              "type": "address"
            },
            {
              "internalType": "uint256",
              "name": "job_id",
              "type": "uint256"
            },
            {
              "internalType": "uint256",
              "name": "proposal_id",
              "type": "uint256"
            },
            {
              "internalType": "bool",
              "name": "is_paid",
              "type": "bool"
            },
            {
              "internalType": "bool",
              "name": "is_canceled",
              "type": "bool"
            },
            {
              "internalType": "bool",
              "name": "is_accepted",
              "type": "bool"
            },
            {
              "internalType": "uint8",
              "name": "fee_percent",
              "type": "uint8"
            },
            {
              "internalType": "uint256",
              "name": "fee_amount",
              "type": "uint256"
            }
          ],
          "internalType": "struct SmartWork.Payment",
          "name": "",
          "type": "tuple"
        }
      ],
      "stateMutability": "view",
      "type": "function"
    },
    {
      "inputs": [
        {
          "internalType": "uint256",
          "name": "proposalId",
          "type": "uint256"
        }
      ],
      "name": "getPaymentByProposalId",
      "outputs": [
        {
          "components": [
            {
              "internalType": "uint256",
              "name": "id",
              "type": "uint256"
            },
            {
              "internalType": "uint256",
              "name": "amount",
              "type": "uint256"
            },
            {
              "internalType": "uint256",
              "name": "discountAmount",
              "type": "uint256"
            },
            {
              "internalType": "address",
              "name": "client",
              "type": "address"
            },
            {
              "internalType": "address",
              "name": "excecutor",
              "type": "address"
            },
            {
              "internalType": "uint256",
              "name": "job_id",
              "type": "uint256"
            },
            {
              "internalType": "uint256",
              "name": "proposal_id",
              "type": "uint256"
            },
            {
              "internalType": "bool",
              "name": "is_paid",
              "type": "bool"
            },
            {
              "internalType": "bool",
              "name": "is_canceled",
              "type": "bool"
            },
            {
              "internalType": "bool",
              "name": "is_accepted",
              "type": "bool"
            },
            {
              "internalType": "uint8",
              "name": "fee_percent",
              "type": "uint8"
            },
            {
              "internalType": "uint256",
              "name": "fee_amount",
              "type": "uint256"
            }
          ],
          "internalType": "struct SmartWork.Payment",
          "name": "",
          "type": "tuple"
        }
      ],
      "stateMutability": "view",
      "type": "function"
    },
    {
      "inputs": [],
      "name": "owner",
      "outputs": [
        {
          "internalType": "address",
          "name": "",
          "type": "address"
        }
      ],
      "stateMutability": "view",
      "type": "function"
    },
    {
      "inputs": [
        {
          "internalType": "uint256",
          "name": "",
          "type": "uint256"
        }
      ],
      "name": "payments",
      "outputs": [
        {
          "internalType": "uint256",
          "name": "id",
          "type": "uint256"
        },
        {
          "internalType": "uint256",
          "name": "amount",
          "type": "uint256"
        },
        {
          "internalType": "uint256",
          "name": "discountAmount",
          "type": "uint256"
        },
        {
          "internalType": "address",
          "name": "client",
          "type": "address"
        },
        {
          "internalType": "address",
          "name": "excecutor",
          "type": "address"
        },
        {
          "internalType": "uint256",
          "name": "job_id",
          "type": "uint256"
        },
        {
          "internalType": "uint256",
          "name": "proposal_id",
          "type": "uint256"
        },
        {
          "internalType": "bool",
          "name": "is_paid",
          "type": "bool"
        },
        {
          "internalType": "bool",
          "name": "is_canceled",
          "type": "bool"
        },
        {
          "internalType": "bool",
          "name": "is_accepted",
          "type": "bool"
        },
        {
          "internalType": "uint8",
          "name": "fee_percent",
          "type": "uint8"
        },
        {
          "internalType": "uint256",
          "name": "fee_amount",
          "type": "uint256"
        }
      ],
      "stateMutability": "view",
      "type": "function"
    },
    {
      "inputs": [
        {
          "internalType": "uint256",
          "name": "paymentIndex",
          "type": "uint256"
        }
      ],
      "name": "sendPayment",
      "outputs": [],
      "stateMutability": "nonpayable",
      "type": "function"
    },
    {
      "inputs": [
        {
          "internalType": "uint8",
          "name": "_fee",
          "type": "uint8"
        }
      ],
      "name": "setFee",
      "outputs": [],
      "stateMutability": "nonpayable",
      "type": "function"
    },
    {
      "inputs": [
        {
          "internalType": "address",
          "name": "tokenAddress",
          "type": "address"
        }
      ],
      "name": "setUsdtWallet",
      "outputs": [],
      "stateMutability": "nonpayable",
      "type": "function"
    },
    {
      "inputs": [],
      "name": "token",
      "outputs": [
        {
          "internalType": "contract Usdt",
          "name": "",
          "type": "address"
        }
      ],
      "stateMutability": "view",
      "type": "function"
    },
    {
      "inputs": [],
      "name": "tokenBalance",
      "outputs": [
        {
          "internalType": "uint256",
          "name": "",
          "type": "uint256"
        }
      ],
      "stateMutability": "view",
      "type": "function"
    }
  ],
  "bytecode": "0x60806040523480156200001157600080fd5b506040516200302f3803806200302f833981810160405281019062000037919062000145565b80600260006101000a81548173ffffffffffffffffffffffffffffffffffffffff021916908373ffffffffffffffffffffffffffffffffffffffff160217905550336000806101000a81548173ffffffffffffffffffffffffffffffffffffffff021916908373ffffffffffffffffffffffffffffffffffffffff1602179055506002600060146101000a81548160ff021916908360ff1602179055505062000177565b600080fd5b600073ffffffffffffffffffffffffffffffffffffffff82169050919050565b60006200010d82620000e0565b9050919050565b6200011f8162000100565b81146200012b57600080fd5b50565b6000815190506200013f8162000114565b92915050565b6000602082840312156200015e576200015d620000db565b5b60006200016e848285016200012e565b91505092915050565b612ea880620001876000396000f3fe608060405234801561001057600080fd5b506004361061010b5760003560e01c8063bf846e04116100a2578063ddca3f4311610071578063ddca3f43146102bf578063f7d4314a146102dd578063f9a670f1146102f9578063fbb6dc7114610317578063fc0c546a146103335761010b565b8063bf846e041461023b578063c3771eb314610257578063cb122a0914610273578063cf2e65a31461028f5761010b565b806391d6df3f116100de57806391d6df3f146101b557806393d63605146101e55780639e1a4d1914610201578063b5b7882a1461021f5761010b565b8063287c94f6146101105780633de73ebe1461012c57806387d817891461015c5780638da5cb5b14610197575b600080fd5b61012a600480360381019061012591906120b2565b610351565b005b610146600480360381019061014191906120f2565b61057e565b604051610153919061229c565b60405180910390f35b610176600480360381019061017191906120f2565b610711565b60405161018e9c9b9a999897969594939291906122f4565b60405180910390f35b61019f6107f5565b6040516101ac91906123ae565b60405180910390f35b6101cf60048036038101906101ca91906120f2565b610819565b6040516101dc919061229c565b60405180910390f35b6101ff60048036038101906101fa91906120f2565b610a0d565b005b610209610cef565b60405161021691906123c9565b60405180910390f35b61023960048036038101906102349190612410565b610d92565b005b610255600480360381019061025091906120f2565b611293565b005b610271600480360381019061026c91906120f2565b6114a6565b005b61028d600480360381019061028891906124a3565b611961565b005b6102a960048036038101906102a491906120f2565b611a9b565b6040516102b6919061229c565b60405180910390f35b6102c7611cd2565b6040516102d491906124d0565b60405180910390f35b6102f760048036038101906102f291906124eb565b611ce5565b005b610301611d29565b60405161030e91906123c9565b60405180910390f35b610331600480360381019061032c91906120f2565b611d31565b005b61033b611fbb565b6040516103489190612577565b60405180910390f35b60006001838154811061036757610366612592565b5b906000526020600020906009020190508060040160009054906101000a900473ffffffffffffffffffffffffffffffffffffffff1673ffffffffffffffffffffffffffffffffffffffff163373ffffffffffffffffffffffffffffffffffffffff1614610409576040517f08c379a00000000000000000000000000000000000000000000000000000000081526004016104009061261e565b60405180910390fd5b600015158160070160009054906101000a900460ff16151514610461576040517f08c379a00000000000000000000000000000000000000000000000000000000081526004016104589061268a565b60405180910390fd5b600015158160070160019054906101000a900460ff161515146104b9576040517f08c379a00000000000000000000000000000000000000000000000000000000081526004016104b0906126f6565b60405180910390fd5b60008282600101546104cb9190612745565b1161050b576040517f08c379a0000000000000000000000000000000000000000000000000000000008152600401610502906127eb565b60405180910390fd5b81816002018190555060008160070160039054906101000a900460ff1660ff1611156105795760648160070160039054906101000a900460ff1660ff168260020154836001015461055c9190612745565b610566919061280b565b610570919061287c565b81600801819055505b505050565b610586611fe1565b6001828154811061059a57610599612592565b5b9060005260206000209060090201604051806101800160405290816000820154815260200160018201548152602001600282015481526020016003820160009054906101000a900473ffffffffffffffffffffffffffffffffffffffff1673ffffffffffffffffffffffffffffffffffffffff1673ffffffffffffffffffffffffffffffffffffffff1681526020016004820160009054906101000a900473ffffffffffffffffffffffffffffffffffffffff1673ffffffffffffffffffffffffffffffffffffffff1673ffffffffffffffffffffffffffffffffffffffff16815260200160058201548152602001600682015481526020016007820160009054906101000a900460ff161515151581526020016007820160019054906101000a900460ff161515151581526020016007820160029054906101000a900460ff161515151581526020016007820160039054906101000a900460ff1660ff1660ff1681526020016008820154815250509050919050565b6001818154811061072157600080fd5b90600052602060002090600902016000915090508060000154908060010154908060020154908060030160009054906101000a900473ffffffffffffffffffffffffffffffffffffffff16908060040160009054906101000a900473ffffffffffffffffffffffffffffffffffffffff16908060050154908060060154908060070160009054906101000a900460ff16908060070160019054906101000a900460ff16908060070160029054906101000a900460ff16908060070160039054906101000a900460ff1690806008015490508c565b60008054906101000a900473ffffffffffffffffffffffffffffffffffffffff1681565b610821611fe1565b610829611fe1565b60005b600180549050811015610a0357836001828154811061084e5761084d612592565b5b906000526020600020906009020160060154036109f0576001818154811061087957610878612592565b5b9060005260206000209060090201604051806101800160405290816000820154815260200160018201548152602001600282015481526020016003820160009054906101000a900473ffffffffffffffffffffffffffffffffffffffff1673ffffffffffffffffffffffffffffffffffffffff1673ffffffffffffffffffffffffffffffffffffffff1681526020016004820160009054906101000a900473ffffffffffffffffffffffffffffffffffffffff1673ffffffffffffffffffffffffffffffffffffffff1673ffffffffffffffffffffffffffffffffffffffff16815260200160058201548152602001600682015481526020016007820160009054906101000a900460ff161515151581526020016007820160019054906101000a900460ff161515151581526020016007820160029054906101000a900460ff161515151581526020016007820160039054906101000a900460ff1660ff1660ff1681526020016008820154815250509150610a03565b80806109fb906128ad565b91505061082c565b5080915050919050565b600060018281548110610a2357610a22612592565b5b906000526020600020906009020190508060030160009054906101000a900473ffffffffffffffffffffffffffffffffffffffff1673ffffffffffffffffffffffffffffffffffffffff163373ffffffffffffffffffffffffffffffffffffffff1614610ac5576040517f08c379a0000000000000000000000000000000000000000000000000000000008152600401610abc90612941565b60405180910390fd5b600015158160070160009054906101000a900460ff16151514610b1d576040517f08c379a0000000000000000000000000000000000000000000000000000000008152600401610b149061268a565b60405180910390fd5b600015158160070160019054906101000a900460ff16151514610b75576040517f08c379a0000000000000000000000000000000000000000000000000000000008152600401610b6c906126f6565b60405180910390fd5b600015158160070160029054906101000a900460ff16151514610bcd576040517f08c379a0000000000000000000000000000000000000000000000000000000008152600401610bc4906129ad565b60405180910390fd5b60008160030160009054906101000a900473ffffffffffffffffffffffffffffffffffffffff169050600260009054906101000a900473ffffffffffffffffffffffffffffffffffffffff1673ffffffffffffffffffffffffffffffffffffffff1663a9059cbb8284600101546040518363ffffffff1660e01b8152600401610c579291906129ee565b6020604051808303816000875af1158015610c76573d6000803e3d6000fd5b505050506040513d601f19601f82011682018060405250810190610c9a9190612a43565b5060018260070160016101000a81548160ff0219169083151502179055508160050154837fb10d7a7f7d19bd72418e486234011296a8e47f21c214ba3ea606f02f0a64a16760405160405180910390a3505050565b6000600260009054906101000a900473ffffffffffffffffffffffffffffffffffffffff1673ffffffffffffffffffffffffffffffffffffffff166370a08231336040518263ffffffff1660e01b8152600401610d4c91906123ae565b602060405180830381865afa158015610d69573d6000803e3d6000fd5b505050506040513d601f19601f82011682018060405250810190610d8d9190612a85565b905090565b60008311610dd5576040517f08c379a0000000000000000000000000000000000000000000000000000000008152600401610dcc90612afe565b60405180910390fd5b60008211610e18576040517f08c379a0000000000000000000000000000000000000000000000000000000008152600401610e0f90612b6a565b60405180910390fd5b82610e21610cef565b11610e61576040517f08c379a0000000000000000000000000000000000000000000000000000000008152600401610e5890612bd6565b60405180910390fd5b6000600260009054906101000a900473ffffffffffffffffffffffffffffffffffffffff1673ffffffffffffffffffffffffffffffffffffffff1663dd62ed3e33306040518363ffffffff1660e01b8152600401610ec0929190612bf6565b602060405180830381865afa158015610edd573d6000803e3d6000fd5b505050506040513d601f19601f82011682018060405250810190610f019190612a85565b905083811015610f46576040517f08c379a0000000000000000000000000000000000000000000000000000000008152600401610f3d90612c6b565b60405180910390fd5b600260009054906101000a900473ffffffffffffffffffffffffffffffffffffffff1673ffffffffffffffffffffffffffffffffffffffff166323b872dd3330876040518463ffffffff1660e01b8152600401610fa593929190612c8b565b6020604051808303816000875af1158015610fc4573d6000803e3d6000fd5b505050506040513d601f19601f82011682018060405250810190610fe89190612a43565b5060016040518061018001604052806001805490508152602001868152602001600081526020013373ffffffffffffffffffffffffffffffffffffffff1681526020018773ffffffffffffffffffffffffffffffffffffffff168152602001858152602001848152602001600015158152602001600015158152602001600015158152602001600060149054906101000a900460ff1660ff16815260200160008060149054906101000a900460ff1660ff16116110a65760006110d1565b6064600060149054906101000a900460ff1660ff16886110c6919061280b565b6110d0919061287c565b5b815250908060018154018082558091505060019003906000526020600020906009020160009091909190915060008201518160000155602082015181600101556040820151816002015560608201518160030160006101000a81548173ffffffffffffffffffffffffffffffffffffffff021916908373ffffffffffffffffffffffffffffffffffffffff16021790555060808201518160040160006101000a81548173ffffffffffffffffffffffffffffffffffffffff021916908373ffffffffffffffffffffffffffffffffffffffff16021790555060a0820151816005015560c0820151816006015560e08201518160070160006101000a81548160ff0219169083151502179055506101008201518160070160016101000a81548160ff0219169083151502179055506101208201518160070160026101000a81548160ff0219169083151502179055506101408201518160070160036101000a81548160ff021916908360ff1602179055506101608201518160080155505082600180805490506112609190612745565b7f0e65f36a6834d0eacdafce32b7aa7351be7c62fde1e6d957367be128c850d2d260405160405180910390a35050505050565b6000600182815481106112a9576112a8612592565b5b906000526020600020906009020190508060040160009054906101000a900473ffffffffffffffffffffffffffffffffffffffff1673ffffffffffffffffffffffffffffffffffffffff163373ffffffffffffffffffffffffffffffffffffffff161461134b576040517f08c379a000000000000000000000000000000000000000000000000000000000815260040161134290612d0e565b60405180910390fd5b600015158160070160009054906101000a900460ff161515146113a3576040517f08c379a000000000000000000000000000000000000000000000000000000000815260040161139a9061268a565b60405180910390fd5b600015158160070160019054906101000a900460ff161515146113fb576040517f08c379a00000000000000000000000000000000000000000000000000000000081526004016113f2906126f6565b60405180910390fd5b600015158160070160029054906101000a900460ff16151514611453576040517f08c379a000000000000000000000000000000000000000000000000000000000815260040161144a90612d7a565b60405180910390fd5b60018160070160026101000a81548160ff0219169083151502179055508060050154827f39f916cfa4e8a7f5d298df5a811d42bbbdfa00e81fdc65d937067ee18bfa273260405160405180910390a35050565b6000600182815481106114bc576114bb612592565b5b906000526020600020906009020190508060030160009054906101000a900473ffffffffffffffffffffffffffffffffffffffff1673ffffffffffffffffffffffffffffffffffffffff163373ffffffffffffffffffffffffffffffffffffffff161461155e576040517f08c379a000000000000000000000000000000000000000000000000000000000815260040161155590612941565b60405180910390fd5b600015158160070160009054906101000a900460ff161515146115b6576040517f08c379a00000000000000000000000000000000000000000000000000000000081526004016115ad9061268a565b60405180910390fd5b600015158160070160019054906101000a900460ff1615151461160e576040517f08c379a0000000000000000000000000000000000000000000000000000000008152600401611605906126f6565b60405180910390fd5b600081600101549050600082600201541115611706578160020154816116349190612745565b905060008260030160009054906101000a900473ffffffffffffffffffffffffffffffffffffffff169050600260009054906101000a900473ffffffffffffffffffffffffffffffffffffffff1673ffffffffffffffffffffffffffffffffffffffff1663a9059cbb8285600201546040518363ffffffff1660e01b81526004016116c09291906129ee565b6020604051808303816000875af11580156116df573d6000803e3d6000fd5b505050506040513d601f19601f820116820180604052508101906117039190612a43565b50505b60008060149054906101000a900460ff1660ff1611156118425760006064600060149054906101000a900460ff1660ff168460020154856001015461174b9190612745565b611755919061280b565b61175f919061287c565b9050808261176d9190612745565b915080836008018190555060008060009054906101000a900473ffffffffffffffffffffffffffffffffffffffff169050600260009054906101000a900473ffffffffffffffffffffffffffffffffffffffff1673ffffffffffffffffffffffffffffffffffffffff1663a9059cbb82846040518363ffffffff1660e01b81526004016117fb9291906129ee565b6020604051808303816000875af115801561181a573d6000803e3d6000fd5b505050506040513d601f19601f8201168201806040525081019061183e9190612a43565b5050505b60008260040160009054906101000a900473ffffffffffffffffffffffffffffffffffffffff169050600260009054906101000a900473ffffffffffffffffffffffffffffffffffffffff1673ffffffffffffffffffffffffffffffffffffffff1663a9059cbb82846040518363ffffffff1660e01b81526004016118c89291906129ee565b6020604051808303816000875af11580156118e7573d6000803e3d6000fd5b505050506040513d601f19601f8201168201806040525081019061190b9190612a43565b5060018360070160006101000a81548160ff0219169083151502179055508260050154847fa9731759d5b696b0894ab58302dbeae94d40428db59e1cafee93432a0fdc968660405160405180910390a350505050565b60008054906101000a900473ffffffffffffffffffffffffffffffffffffffff1673ffffffffffffffffffffffffffffffffffffffff163373ffffffffffffffffffffffffffffffffffffffff16146119ef576040517f08c379a00000000000000000000000000000000000000000000000000000000081526004016119e690612941565b60405180910390fd5b60008160ff161015611a36576040517f08c379a0000000000000000000000000000000000000000000000000000000008152600401611a2d90612de6565b60405180910390fd5b60648160ff161115611a7d576040517f08c379a0000000000000000000000000000000000000000000000000000000008152600401611a7490612e52565b60405180910390fd5b80600060146101000a81548160ff021916908360ff16021790555050565b611aa3611fe1565b611aab611fe1565b60005b600180549050811015611cc8578360018281548110611ad057611acf612592565b5b906000526020600020906009020160050154148015611b2557506000151560018281548110611b0257611b01612592565b5b906000526020600020906009020160070160019054906101000a900460ff161515145b15611cb55760018181548110611b3e57611b3d612592565b5b9060005260206000209060090201604051806101800160405290816000820154815260200160018201548152602001600282015481526020016003820160009054906101000a900473ffffffffffffffffffffffffffffffffffffffff1673ffffffffffffffffffffffffffffffffffffffff1673ffffffffffffffffffffffffffffffffffffffff1681526020016004820160009054906101000a900473ffffffffffffffffffffffffffffffffffffffff1673ffffffffffffffffffffffffffffffffffffffff1673ffffffffffffffffffffffffffffffffffffffff16815260200160058201548152602001600682015481526020016007820160009054906101000a900460ff161515151581526020016007820160019054906101000a900460ff161515151581526020016007820160029054906101000a900460ff161515151581526020016007820160039054906101000a900460ff1660ff1660ff1681526020016008820154815250509150611cc8565b8080611cc0906128ad565b915050611aae565b5080915050919050565b600060149054906101000a900460ff1681565b80600260006101000a81548173ffffffffffffffffffffffffffffffffffffffff021916908373ffffffffffffffffffffffffffffffffffffffff16021790555050565b600047905090565b600060018281548110611d4757611d46612592565b5b906000526020600020906009020190508060040160009054906101000a900473ffffffffffffffffffffffffffffffffffffffff1673ffffffffffffffffffffffffffffffffffffffff163373ffffffffffffffffffffffffffffffffffffffff1614611de9576040517f08c379a0000000000000000000000000000000000000000000000000000000008152600401611de09061261e565b60405180910390fd5b600015158160070160009054906101000a900460ff16151514611e41576040517f08c379a0000000000000000000000000000000000000000000000000000000008152600401611e389061268a565b60405180910390fd5b600015158160070160019054906101000a900460ff16151514611e99576040517f08c379a0000000000000000000000000000000000000000000000000000000008152600401611e90906126f6565b60405180910390fd5b60008160030160009054906101000a900473ffffffffffffffffffffffffffffffffffffffff169050600260009054906101000a900473ffffffffffffffffffffffffffffffffffffffff1673ffffffffffffffffffffffffffffffffffffffff1663a9059cbb8284600101546040518363ffffffff1660e01b8152600401611f239291906129ee565b6020604051808303816000875af1158015611f42573d6000803e3d6000fd5b505050506040513d601f19601f82011682018060405250810190611f669190612a43565b5060018260070160016101000a81548160ff0219169083151502179055508160050154837fb10d7a7f7d19bd72418e486234011296a8e47f21c214ba3ea606f02f0a64a16760405160405180910390a3505050565b600260009054906101000a900473ffffffffffffffffffffffffffffffffffffffff1681565b604051806101800160405280600081526020016000815260200160008152602001600073ffffffffffffffffffffffffffffffffffffffff168152602001600073ffffffffffffffffffffffffffffffffffffffff1681526020016000815260200160008152602001600015158152602001600015158152602001600015158152602001600060ff168152602001600081525090565b600080fd5b6000819050919050565b61208f8161207c565b811461209a57600080fd5b50565b6000813590506120ac81612086565b92915050565b600080604083850312156120c9576120c8612077565b5b60006120d78582860161209d565b92505060206120e88582860161209d565b9150509250929050565b60006020828403121561210857612107612077565b5b60006121168482850161209d565b91505092915050565b6121288161207c565b82525050565b600073ffffffffffffffffffffffffffffffffffffffff82169050919050565b60006121598261212e565b9050919050565b6121698161214e565b82525050565b60008115159050919050565b6121848161216f565b82525050565b600060ff82169050919050565b6121a08161218a565b82525050565b610180820160008201516121bd600085018261211f565b5060208201516121d0602085018261211f565b5060408201516121e3604085018261211f565b5060608201516121f66060850182612160565b5060808201516122096080850182612160565b5060a082015161221c60a085018261211f565b5060c082015161222f60c085018261211f565b5060e082015161224260e085018261217b565b5061010082015161225761010085018261217b565b5061012082015161226c61012085018261217b565b50610140820151612281610140850182612197565b5061016082015161229661016085018261211f565b50505050565b6000610180820190506122b260008301846121a6565b92915050565b6122c18161207c565b82525050565b6122d08161214e565b82525050565b6122df8161216f565b82525050565b6122ee8161218a565b82525050565b60006101808201905061230a600083018f6122b8565b612317602083018e6122b8565b612324604083018d6122b8565b612331606083018c6122c7565b61233e608083018b6122c7565b61234b60a083018a6122b8565b61235860c08301896122b8565b61236560e08301886122d6565b6123736101008301876122d6565b6123816101208301866122d6565b61238f6101408301856122e5565b61239d6101608301846122b8565b9d9c50505050505050505050505050565b60006020820190506123c360008301846122c7565b92915050565b60006020820190506123de60008301846122b8565b92915050565b6123ed8161214e565b81146123f857600080fd5b50565b60008135905061240a816123e4565b92915050565b6000806000806080858703121561242a57612429612077565b5b6000612438878288016123fb565b94505060206124498782880161209d565b935050604061245a8782880161209d565b925050606061246b8782880161209d565b91505092959194509250565b6124808161218a565b811461248b57600080fd5b50565b60008135905061249d81612477565b92915050565b6000602082840312156124b9576124b8612077565b5b60006124c78482850161248e565b91505092915050565b60006020820190506124e560008301846122e5565b92915050565b60006020828403121561250157612500612077565b5b600061250f848285016123fb565b91505092915050565b6000819050919050565b600061253d6125386125338461212e565b612518565b61212e565b9050919050565b600061254f82612522565b9050919050565b600061256182612544565b9050919050565b61257181612556565b82525050565b600060208201905061258c6000830184612568565b92915050565b7f4e487b7100000000000000000000000000000000000000000000000000000000600052603260045260246000fd5b600082825260208201905092915050565b7f57726f6e6720657863656375746f720000000000000000000000000000000000600082015250565b6000612608600f836125c1565b9150612613826125d2565b602082019050919050565b60006020820190508181036000830152612637816125fb565b9050919050565b7f416c726561647920706169640000000000000000000000000000000000000000600082015250565b6000612674600c836125c1565b915061267f8261263e565b602082019050919050565b600060208201905081810360008301526126a381612667565b9050919050565b7f416c72656164792063616e63656c656400000000000000000000000000000000600082015250565b60006126e06010836125c1565b91506126eb826126aa565b602082019050919050565b6000602082019050818103600083015261270f816126d3565b9050919050565b7f4e487b7100000000000000000000000000000000000000000000000000000000600052601160045260246000fd5b60006127508261207c565b915061275b8361207c565b925082820390508181111561277357612772612716565b5b92915050565b7f446973636f756e742073686f756c64206265206c657373207468616e20616d6f60008201527f756e74206f66207061796d656e74000000000000000000000000000000000000602082015250565b60006127d5602e836125c1565b91506127e082612779565b604082019050919050565b60006020820190508181036000830152612804816127c8565b9050919050565b60006128168261207c565b91506128218361207c565b925082820261282f8161207c565b9150828204841483151761284657612845612716565b5b5092915050565b7f4e487b7100000000000000000000000000000000000000000000000000000000600052601260045260246000fd5b60006128878261207c565b91506128928361207c565b9250826128a2576128a161284d565b5b828204905092915050565b60006128b88261207c565b91507fffffffffffffffffffffffffffffffffffffffffffffffffffffffffffffffff82036128ea576128e9612716565b5b600182019050919050565b7f57726f6e67206f776e6572000000000000000000000000000000000000000000600082015250565b600061292b600b836125c1565b9150612936826128f5565b602082019050919050565b6000602082019050818103600083015261295a8161291e565b9050919050565b7f5061796d656e7420616c72656164792061636365707465640000000000000000600082015250565b60006129976018836125c1565b91506129a282612961565b602082019050919050565b600060208201905081810360008301526129c68161298a565b9050919050565b60006129d882612544565b9050919050565b6129e8816129cd565b82525050565b6000604082019050612a0360008301856129df565b612a1060208301846122b8565b9392505050565b612a208161216f565b8114612a2b57600080fd5b50565b600081519050612a3d81612a17565b92915050565b600060208284031215612a5957612a58612077565b5b6000612a6784828501612a2e565b91505092915050565b600081519050612a7f81612086565b92915050565b600060208284031215612a9b57612a9a612077565b5b6000612aa984828501612a70565b91505092915050565b7f416d6f756e74206d757374206265206d6f7265207468616e2030000000000000600082015250565b6000612ae8601a836125c1565b9150612af382612ab2565b602082019050919050565b60006020820190508181036000830152612b1781612adb565b9050919050565b7f4a6f62206964206d757374206265206d6f7265207468616e2030000000000000600082015250565b6000612b54601a836125c1565b9150612b5f82612b1e565b602082019050919050565b60006020820190508181036000830152612b8381612b47565b9050919050565b7f4e6f7420656e6f756774682066756e6473000000000000000000000000000000600082015250565b6000612bc06011836125c1565b9150612bcb82612b8a565b602082019050919050565b60006020820190508181036000830152612bef81612bb3565b9050919050565b6000604082019050612c0b60008301856122c7565b612c1860208301846122c7565b9392505050565b7f636865636b20616c6c6f77616e63650000000000000000000000000000000000600082015250565b6000612c55600f836125c1565b9150612c6082612c1f565b602082019050919050565b60006020820190508181036000830152612c8481612c48565b9050919050565b6000606082019050612ca060008301866122c7565b612cad60208301856122c7565b612cba60408301846122b8565b949350505050565b7f57726f6e67206578656375746f72000000000000000000000000000000000000600082015250565b6000612cf8600e836125c1565b9150612d0382612cc2565b602082019050919050565b60006020820190508181036000830152612d2781612ceb565b9050919050565b7f416c726561647920616363657074656400000000000000000000000000000000600082015250565b6000612d646010836125c1565b9150612d6f82612d2e565b602082019050919050565b60006020820190508181036000830152612d9381612d57565b9050919050565b7f466565206d7573742062652067726561746572206f7220657175616c20300000600082015250565b6000612dd0601e836125c1565b9150612ddb82612d9a565b602082019050919050565b60006020820190508181036000830152612dff81612dc3565b9050919050565b7f466565206d757374206e6f74206265206d6f7265207468616e20313030000000600082015250565b6000612e3c601d836125c1565b9150612e4782612e06565b602082019050919050565b60006020820190508181036000830152612e6b81612e2f565b905091905056fea2646970667358221220ecb54b55432bbeab00fb0c2b7f1b9e0d4f61ddb9c1d5ef4e1f0bf3856688431e64736f6c63430008110033",
  "linkReferences": {},
  "deployedLinkReferences": {}
}